:020000040800F2
:1000000000000120050800088D070008930700087C
:10001000990700089F070008A507000800000000D6
:10002000000000000000000000000000AB07000816
:10003000B907000800000000C7070008D50700083E
:10004000550800085508000855080008550800081C
:10005000550800085508000855080008550800080C
:1000600055080008550800085508000855080008FC
:1000700055080008550800085508000855080008EC
:100080005508000855080008550800080000000041
:1000900000000000000000000000000055080008FB
:1000A00055080008550800085508000855080008BC
:1000B00055080008550800085508000855080008AC
:1000C000550800085508000855080008550800089C
:1000D00055080008550800085508000800000000F1
:1000E00055080008550800085508000800000000E1
:1000F000000000000000000000000000550800089B
:1001000000000000550800085508000855080008C0
:1001100000000000000000000000000000000000DF
:10012000550800085508000855080008550800083B
:10013000550800080000000000000000000000005A
:10014000000000000000000000000000550800084A
:10015000550800085508000855080008550800080B
:1001600055080008550800080000000000000000C5
:10017000000000000000000000000000000000007F
:10018000000000005508000800000000000000000A
:040190005508000806
:1001940010B5054C237833B9044B13B10448AFF3BD
:1001A40000800123237010BD040000200000000023
:1001B400C808000808B5034B1BB103490348AFF353
:1001C400008008BD0000000008000020C8080008E6
:1001D40080B483B000AF0346FB710B46BB7113467A
:1001E4007B71FB79022B36D0022B4CDC002B02D026
:1001F400012B18D047E0274B1B68BA795200032122
:1002040001FA02F2D2431146224A0B401360214BF9
:100214001B687979BA79520001FA02F211461D4A33
:100224000B4313602FE01C4B1B68BA795200032167
:1002340001FA02F2D2431146174A0B401360164BDF
:100244001B687979BA79520001FA02F21146124A0E
:100254000B43136017E0114B1B68BA79520003215A
:1002640001FA02F2D24311460C4A0B4013600B4BC5
:100274001B687979BA79520001FA02F21146074AE9
:100284000B43136000BF00BF0C37BD465DF8047B11
:10029400704700BF00000240000402400008024012
:1002A40080B483B000AF0346FB710B46BB711346A9
:1002B4007B717B79012B1BD1FB79022B12D0022B92
:1002C40038DC002B02D0012B06D033E0BB790122AD
:1002D4009A401B4B9A612DE0BB7901229A40194B3D
:1002E4009A6127E0BB7901229A40174B9A6121E079
:1002F4007B79002B1ED1FB79022B14D0022B19DC45
:10030400002B02D0012B07D014E0BB79103301225B
:100314009A400B4B9A610DE0BB79103301229A404D
:10032400084B9A6106E0BB79103301229A40064BD0
:100334009A6100BF00BF0C37BD465DF8047B70476F
:1003440000000240000402400008024080B485B06E
:1003540000AF0346FB710B46BB7113467B71BB793F
:10036400072B52D8FB79022B37D0022B00F3A28043
:10037400002B02D0012B18D09CE0514B1B6ABA7998
:1003840092000F2101FA02F2D24311464C4A0B406B
:1003940013624B4B1B6A7979BA79920001FA02F223
:1003A4001146474A0B43136284E0464B1B6ABA79F1
:1003B40092000F2101FA02F2D2431146414A0B4046
:1003C4001362404B1B6A7979BA79920001FA02F2FE
:1003D40011463C4A0B4313626CE03B4B1B6ABA79EF
:1003E40092000F2101FA02F2D2431146364A0B4021
:1003F4001362354B1B6A7979BA79920001FA02F2D9
:100404001146314A0B43136254E0BB79083BFB733A
:10041400FB79022B36D0022B4CDC002B02D0012BB3
:1004240018D047E0264B5B6AFA7B92000F2101FA51
:1004340002F2D2431146224A0B405362204B5B6ABC
:100444007979FA7B920001FA02F211461C4A0B43B5
:1004540053622FE01B4B5B6AFA7B92000F2101FA77
:1004640002F2D2431146174A0B405362154B5B6AA2
:100474007979FA7B920001FA02F21146114A0B4390
:10048400536217E0104B5B6AFA7B92000F2101FA6A
:1004940002F2D24311460C4A0B4053620A4B5B6A88
:1004A4007979FA7B920001FA02F21146064A0B436B
:1004B400536200BF00BF1437BD465DF8047B70472C
:1004C40000000240000402400008024080B400AF73
:1004D400154B1B68144A43F00103136000BF124B11
:1004E4001B6803F00203002BF9D00F4B9B680E4AE4
:1004F40023F0010393600C4B9B680B4A23F0020327
:10050400936000BF084B9B6803F00403002B05D0E5
:10051400054B9B6803F00803002BF3D000BFBD46D6
:100524005DF8047B704700BF0038024080B483B09C
:1005340000AF03460A46FB711346BB71FB79032BDC
:100544001CD0032B25DC012B02D0022B0BD020E086
:10055400134B1B6BBA79012101FA02F21146104ABE
:100564000B43136315E00E4B1B6CBA79012101FA9E
:1005740002F211460A4A0B4313640AE0084B5B6C0F
:10058400BA79012101FA02F21146054A0B43536478
:1005940000BF00BF0C37BD465DF8047B704700BF49
:1005A4000038024080B400AF164BDB68154A23F4D0
:1005B4008053D360134B1B69124A23F48053136195
:1005C400104B1B690F4A23F4005313610D4B40F287
:1005D40083629A600B4BDB680A4A43F40053D3608E
:1005E400084BDB68074A43F00803D360054BDB681C
:1005F400044A43F00403D36000BFBD465DF8047BA6
:10060400704700BF0010014080B400AF00BF074B2B
:100614001B6803F02003002BF9D0044B5B68DBB2AA
:100624001846BD465DF8047B704700BF00100140CA
:1006340080B582B000AFFFF749FF00210120FFF72A
:1006440075FF01210120FFF771FF04210320FFF74B
:100654006DFFFFF7A7FF012200210020FFF7B8FD7F
:10066400012201210020FFF7B3FD01220221002015
:10067400FFF7AEFD012203210020FFF7A9FD0222AE
:1006840009210020FFF7A4FD02220A210020FFF720
:100694009FFD072209210020FFF758FE07220A21A7
:1006A4000020FFF753FE0023FB71FFF7ADFF034665
:1006B400FB71FB79013B072BF7D801A252F823F019
:1006C400E5060008F1060008FD0600080907000811
:1006D40015070008210700082D0700084D0700082A
:1006E400012200210020FFF7DBFD4AE00122012165
:1006F4000020FFF7D5FD44E0012202210020FFF78E
:10070400CFFD3EE0002200210020FFF7C9FD38E0C4
:10071400002201210020FFF7C3FD32E00022022164
:100724000020FFF7BDFD2CE0002200210020FFF790
:10073400B7FD002201210020FFF7B2FD00220221B3
:100744000020FFF7ADFD1CE00023FB710D4B1B786F
:10075400002B0CBF01230023DBB21A46094B1A708D
:10076400084B1B78002B05D1002203210020FFF742
:1007740097FD04E0012203210020FFF791FD00BF53
:1007840093E792E72000002080B400AFFEE780B436
:1007940000AFFEE780B400AFFEE780B400AFFEE731
:1007A40080B400AFFEE780B400AF00BFBD465DF883
:1007B400047B704780B400AF00BFBD465DF8047B86
:1007C400704780B400AF00BFBD465DF8047B70473E
:1007D40080B500AF00F03EF800BF80BD80B400AF2C
:1007E400064BD3F88830054A43F47003C2F88830C6
:1007F40000BFBD465DF8047B704700BF00ED00E01C
:10080400DFF834D00D480E490E4A002302E0D458D4
:10081400C4500433C4188C42F9D30B4A0B4C002344
:1008240001E013600432A242FBD3FFF7D7FF00F0CC
:1008340025F8FFF7FDFE70470000012000000020AE
:1008440004000020E808000804000020280000201C
:10085400FEE7000080B400AF064B1B781A46064B37
:100864001B681344044A136000BFBD465DF8047B53
:10087400704700BF000000202400002070B50D4D1B
:100884000D4C641BA4100026A64209D10B4D0C4C40
:1008940000F018F8641BA4100026A64205D170BD10
:1008A40055F8043B98470136EEE755F8043B984762
:1008B4000136F2E7E0080008E0080008E008000854
:1008C400E4080008F8B500BFF8BC08BC9E467047B1
:0C08D400F8B500BFF8BC08BC9E46704799
:0408E000B901000852
:0408E4009501000872
:0408E800010000000B
:0400000508000805E2
:00000001FF
