:020000040800F2
:1000000000000120D1130008651300086B130008DD
:1000100071130008771300087D130008000000002A
:100020000000000000000000000000008313000832
:1000300091130008000000009F1300086D100008D5
:1000400021140008211400082114000821140008BC
:1000500021140008211400082114000821140008AC
:10006000211400082114000821140008211400089C
:10007000211400082114000821140008211400088C
:1000800021140008211400082114000800000000B9
:100090000000000000000000000000002114000823
:1000A000211400082114000821140008211400085C
:1000B000211400082114000821140008211400084C
:1000C000211400082114000821140008211400083C
:1000D0002114000821140008211400080000000069
:1000E0002114000821140008211400080000000059
:1000F00000000000000000000000000021140008C3
:100100000000000021140008211400082114000838
:1001100000000000000000000000000000000000DF
:1001200021140008211400082114000821140008DB
:100130002114000800000000000000000000000082
:100140000000000000000000000000002114000872
:1001500021140008211400082114000821140008AB
:100160002114000821140008000000000000000015
:10017000000000000000000000000000000000007F
:100180000000000021140008000000000000000032
:04019000211400082E
:1001940010B5054C237833B9044B13B10448AFF3BD
:1001A40000800123237010BD240000200000000003
:1001B4006C14000808B5034B1BB103490348AFF3A3
:1001C400008008BD00000000280000206C14000816
:1001D40080B500AF00F0D0FB0221012000F07CFBD1
:1001E4000221094800F09EFB0221022000F074FB6A
:1001F4000221064800F096FB4FF4FA6000F0DEFEA0
:1002040000F0BAFB00BF80BD8414000890140008FD
:1002140080B584B000AF0023FB730023BB730123BC
:100224003B730021022000F057FB00237B736FE037
:10023400FB1D184600F0CCF9FB79FF2BF8D0FB79B5
:100244003D2B1CD0FB7B1946022000F045FBFB79BB
:10025400184600F0CBFA322000F0B0FEFB7B1946C2
:10026400022000F039FB2A2000F0C0FAFB7B5A1C64
:10027400FA73FA7910333B4403F8082CD8E700BF2B
:10028400FB7B042B14D00023FB7300F075FB0021CF
:10029400012000F021FB0021214800F043FB002154
:1002A400022000F019FB4FF4FA6000F087FE2CE006
:1002B40007F10803184600F039F803463B733B7B0B
:1002C400002B10D00123BB730023FB7300233B736B
:1002D40000F052FB0021134800F024FB4FF47A7025
:1002E40000F06CFE17E00023BB730023FB7300F0E7
:1002F40043FB00210C4800F015FB0021022000F014
:10030400EBFA4FF4FA6000F059FE7B7B01337B7308
:100314007B7B022B8CD9BB7B18461037BD4680BD36
:100324009C140008AC140008BC14000880B485B008
:1003340000AF78600123FB737B681A78134B1B783A
:100344009A4201D00023FB737B6801331A780F4B68
:100354005B789A4201D00023FB737B6802331A78DE
:100364000A4B9B789A4201D00023FB737B680333CA
:100374001A78064BDB789A4201D00023FB73FB7B8F
:1003840018461437BD465DF8047B70470000002012
:1003940080B582B000AFFF23BB710023FB71334BE8
:1003A4001B78184600F064F858E0BB1D184600F0AE
:1003B4000FF9BB79312B03D1012000F0B5FE4BE0DE
:1003C400BB79322B03D1022000F0AEFE44E0BB79AE
:1003D400332B03D1032000F0A7FE3DE0BB79342B7F
:1003E40003D1042000F0A0FE36E0BB79352B03D105
:1003F400052000F099FE2FE0BB79362B03D10620AF
:1004040000F092FE28E0BB79372B03D1072000F0DF
:100414008BFE21E0BB79382B03D1082000F084FE49
:100424001AE0BB79392B02D10123FB7119E0BB79A6
:10043400302B11D10D4B1B78042B02D10B4BFF2217
:100444001A700A4B1B780133DAB2084B1A70074B47
:100454001B78184600F00CF8FF23BB71BB79FF2B07
:10046400A3D0FB7918460837BD4680BD4000002064
:1004740080B582B000AF0346FB71FB79042B00F218
:100484008C8001A252F823F0A1040008D7040008CC
:100494000D050008430500087905000800F06CFA12
:1004A4000021012000F018FA00213E4800F03AFA39
:1004B4000021022000F010FA00213B4800F032FA3B
:1004C4000B21012000F008FA0B21384800F02AFA29
:1004D40063E000F051FA0021012000F0FDF9002151
:1004E400334800F01FFA0021022000F0F5F9002142
:1004F400304800F017FA0B21012000F0EDF90B2130
:100504002A4800F00FFA48E000F036FA00210120F2
:1005140000F0E2F90021284800F004FA002102204A
:1005240000F0DAF90021254800F0FCF90B21012044
:1005340000F0D2F90B211D4800F0F4F92DE000F091
:100544001BFA0021012000F0C7F900211C4800F02B
:10055400E9F90021022000F0BFF90021194800F058
:10056400E1F90B21012000F0B7F90B210F4800F04D
:10057400D9F912E000F000FA0021012000F0ACF9F2
:100584000021114800F0CEF90021022000F0A4F966
:1005940000210E4800F0C6F900BF00BF0837BD4671
:1005A40080BD00BFCC140008D8140008E41400086F
:1005B400EC140008F81400080415000810150008CD
:1005C4001C15000828150008301500083C15000803
:1005D40080B584B000AF78600123FB730023FB7205
:1005E4007B68002B5DD07B68FF221A700023BB73ED
:1005F40053E0BB7B2F4AD05CBB7B2F4AD35C0022E9
:10060400194600F049FB00237B7333E07B7B2B4AC4
:10061400D25C7B7B2A49CB5C1946104600F088FAF1
:1006240003463B733B7B002B21D1142000F0C6FC16
:100634000BE07B7B214AD25C7B7B2149CB5C194656
:10064400104600F075FA03463B733B7B002BF0D059
:10065400142000F0B3FCBA7B7B7B1A4992000A4455
:1006640013441A787B681A700123FB7205E07B7BC4
:1006740001337B737B7B032BC8D9BB7B0D4AD05CD6
:10068400BB7B0D4AD35C0122194600F005FBFB7AC3
:10069400002B09D1BB7B0133BB73BB7B032BA8D9D4
:1006A40003E00023FB7300E000BFFB7B1846103718
:1006B400BD4680BD0800002004000020100000207A
:1006C4000C0000201400002080B500AF1F2000F0B3
:1006D400A1FC382000F014F8282000F09BFC0F2027
:1006E40000F00EF8282000F095FC012000F008F836
:1006F400022000F063FC062000F002F800BF80BD79
:1007040080B584B000AF0346FB710123FB73002264
:100714000021002000F0C0FA00220121002000F096
:10072400BBFAFB7903F00103DBB21A46082100206F
:1007340000F03EFAFB795B08DBB203F00103DBB2A5
:100744001A460421002000F033FAFB799B08DBB23F
:1007540003F00103DBB21A460521002000F028FA59
:10076400FB79DB08DBB203F00103DBB21A460B2191
:10077400002000F01DFAFB791B09DBB203F0010332
:10078400DBB21A460C21002000F012FAFB795B0957
:10079400DBB203F00103DBB21A460D21002000F0A6
:1007A40007FAFB799B09DBB203F00103DBB21A46BB
:1007B4000E21002000F0FCF9FB79DB09DBB21A46BC
:1007C4000F21002000F0F4F901220221002000F0A2
:1007D40063FA012000F01EFC00220221002000F038
:1007E4005BFAFB7B18461037BD4680BD80B584B0EC
:1007F40000AF0346FB710123FB730122002100209B
:1008040000F04AFA00220121002000F045FAFB79A9
:1008140003F00103DBB21A460821002000F0C8F9F6
:10082400FB795B08DBB203F00103DBB21A46042157
:10083400002000F0BDF9FB799B08DBB203F0010353
:10084400DBB21A460521002000F0B2F9FB79DB087F
:10085400DBB203F00103DBB21A460B21002000F0E7
:10086400A7F9FB791B09DBB203F00103DBB21A46DB
:100874000C21002000F09CF9FB795B09DBB203F04A
:100884000103DBB21A460D21002000F091F9FB7937
:100894009B09DBB203F00103DBB21A460E210020F0
:1008A40000F086F9FB79DB09DBB21A460F21002040
:1008B40000F07EF901220221002000F0EDF9012070
:1008C40000F0A8FB00220221002000F0E5F9FB7BE8
:1008D40018461037BD4680BD80B584B000AF0346CE
:1008E4000A46FB711346BB710123FB73FB79012B91
:1008F40002D0022B07D00DE0BB79803BDBB2184657
:10090400FFF7FEFE09E0BB79403BDBB21846FFF778
:10091400F7FE02E00023FB7300BFFB7B1846103791
:10092400BD4680BD80B584B000AF78600B46FB70D7
:100934000123BB730023FB7313E0FA7BFB78C3F141
:1009440010039A4203D100210220FFF7C5FFFB7B6D
:100954007A6813441B781846FFF748FFFB7B013382
:10096400FB73FB7B7A6813441B78002BE5D1BB7BBC
:1009740018461037BD4680BD80B500AF0120FFF793
:10098400BFFE322000F01AFB0123184680BD000090
:1009940080B483B000AF0346FB710B46BB711346B2
:1009A4007B71FB79022B36D0022B4CDC002B02D05E
:1009B400012B18D047E0274B1B68BA79520003215A
:1009C40001FA02F2D2431146224A0B401360214B32
:1009D4001B687979BA79520001FA02F211461D4A6C
:1009E4000B4313602FE01C4B1B68BA7952000321A0
:1009F40001FA02F2D2431146174A0B401360164B18
:100A04001B687979BA79520001FA02F21146124A46
:100A14000B43136017E0114B1B68BA795200032192
:100A240001FA02F2D24311460C4A0B4013600B4BFD
:100A34001B687979BA79520001FA02F21146074A21
:100A44000B43136000BF00BF0C37BD465DF8047B49
:100A5400704700BF0000024000040240000802404A
:100A640080B483B000AF0346FB710B46BB711346E1
:100A74007B71FB79022B36D0022B4CDC002B02D08D
:100A8400012B18D047E0274BDB68BA7952000321C9
:100A940001FA02F2D2431146224A0B40D360214BA1
:100AA400DB687979BA79520001FA02F211461D4ADB
:100AB4000B43D3602FE01C4BDB68BA79520003214F
:100AC40001FA02F2D2431146174A0B40D360164B87
:100AD400DB687979BA79520001FA02F21146124AB6
:100AE4000B43D36017E0114BDB68BA795200032142
:100AF40001FA02F2D24311460C4A0B40D3600B4B6D
:100B0400DB687979BA79520001FA02F21146074A90
:100B14000B43D36000BF00BF0C37BD465DF8047BB8
:100B2400704700BF00000240000402400008024079
:100B340080B485B000AF03460A46FB711346BB710F
:100B44000023FB73FB79022B1AD0022B22DC002B2F
:100B540002D0012B0AD01DE0124B1A69BB7922FA8C
:100B640003F3DBB203F00103FB7313E00E4B1A69CA
:100B7400BB7922FA03F3DBB203F00103FB7309E050
:100B84000A4B1A69BB7922FA03F3DBB203F00103BF
:100B9400FB7300BFFB7B18461437BD465DF8047B2E
:100BA400704700BF000002400004024000080240F9
:100BB40080B483B000AF0346FB710B46BB71134690
:100BC4007B717B79012B2AD1FB79022B1CD0022B60
:100BD40056DC002B02D0012B0BD051E02B4B5B6970
:100BE400BA79012101FA02F21146284A0B435361F2
:100BF40046E0274B5B69BA79012101FA02F21146FA
:100C0400234A0B4353613BE0224B5B69BA790121D0
:100C140001FA02F211461F4A0B43536130E07B791B
:100C2400002B2DD1FB79022B1ED0022B28DC002BAC
:100C340002D0012B0CD023E0144B5B69BA7901215B
:100C440001FA02F2D2431146104A0B40536117E0F5
:100C54000F4B5B69BA79012101FA02F2D2431146C2
:100C64000B4A0B4053610BE00A4B5B69BA790121D3
:100C740001FA02F2D2431146064A0B40536100BF07
:100C840000BF0C37BD465DF8047B7047000002408E
:100C9400000402400008024080B483B000AF034661
:100CA400FB710B46BB7113467B717B79012B1BD106
:100CB400FB79022B12D0022B38DC002B02D0012B43
:100CC40006D033E0BB7901229A401B4B9A612DE098
:100CD400BB7901229A40194B9A6127E0BB79012222
:100CE4009A40174B9A6121E07B79002B1ED1FB7946
:100CF400022B14D0022B19DC002B02D0012B07D0BD
:100D040014E0BB79103301229A400B4B9A610DE039
:100D1400BB79103301229A40084B9A6106E0BB79F3
:100D2400103301229A40064B9A6100BF00BF0C3772
:100D3400BD465DF8047B7047000002400004024099
:100D44000008024080B485B000AF0346FB710B4637
:100D5400BB7113467B71BB79072B52D8FB79022BED
:100D640037D0022B00F3A280002B02D0012B18D025
:100D74009CE0514B1B6ABA7992000F2101FA02F2EE
:100D8400D24311464C4A0B4013624B4B1B6A797990
:100D9400BA79920001FA02F21146474A0B431362F0
:100DA40084E0464B1B6ABA7992000F2101FA02F2E1
:100DB400D2431146414A0B401362404B1B6A797976
:100DC400BA79920001FA02F211463C4A0B431362CB
:100DD4006CE03B4B1B6ABA7992000F2101FA02F2D4
:100DE400D2431146364A0B401362354B1B6A79795C
:100DF400BA79920001FA02F21146314A0B431362A6
:100E040054E0BB79083BFB73FB79022B36D0022BF1
:100E14004CDC002B02D0012B18D047E0264B5B6A38
:100E2400FA7B92000F2101FA02F2D2431146224AC0
:100E34000B405362204B5B6A7979FA7B920001FA8A
:100E440002F211461C4A0B4353622FE01B4B5B6AB0
:100E5400FA7B92000F2101FA02F2D2431146174A9B
:100E64000B405362154B5B6A7979FA7B920001FA65
:100E740002F21146114A0B43536217E0104B5B6AAE
:100E8400FA7B92000F2101FA02F2D24311460C4A76
:100E94000B4053620A4B5B6A7979FA7B920001FA40
:100EA40002F21146064A0B43536200BF00BF1437D7
:100EB400BD465DF8047B7047000002400004024018
:100EC4000008024080B400AF154B1B68144A43F07D
:100ED4000103136000BF124B1B6803F00203002BD5
:100EE400F9D00F4B9B680E4A23F0010393600C4B1F
:100EF4009B680B4A23F00203936000BF084B9B6876
:100F040003F00403002B05D0054B9B6803F0080392
:100F1400002BF3D000BFBD465DF8047B704700BFD3
:100F24000038024080B483B000AF03460A46FB7128
:100F34001346BB71FB79032B1CD0032B25DC012B3F
:100F440002D0022B0BD020E0134B1B6BBA7901218A
:100F540001FA02F21146104A0B43136315E00E4BDB
:100F64001B6CBA79012101FA02F211460A4A0B43B9
:100F740013640AE0084B5B6CBA79012101FA02F2AE
:100F84001146054A0B43536400BF00BF0C37BD46EE
:100F94005DF8047B704700BF0038024080B400AFA6
:100FA400054B1B68044A43F00403136000BFBD46AD
:100FB4005DF8047B704700BF10E000E080B483B0AC
:100FC40000AF7860124A7B684FF47A5101FB03F357
:100FD40053600F4B1B680E4A43F00103136000BFBC
:100FE4000B4B1B6803F48033002BF9D0084B002211
:100FF4005A60074B00229A60054B1B68044A23F091
:101004000103136000BF0C37BD465DF8047B7047D5
:1010140010E000E080B483B000AF7860114A7B68D0
:101024001B0153600F4B1B680E4A43F0010313600E
:1010340000BF0C4B1B6803F48033002BF9D0094B21
:1010440000225A60074B00229A60064B1B68054A2F
:1010540023F00103136000BF0C37BD465DF8047B29
:10106400704700BF10E000E080B582B000AF124BC3
:101074001B689847114B1B78022B11D1104B00228F
:101084005A600F4B00229A600D4B1B680C4A23F0E8
:10109400010313600A4B1B68094A23F0020313601F
:1010A400074B1B681B0CDBB203F00103DBB2FB71C3
:1010B40000BF0837BD4680BD440000204800002022
:1010C40010E000E080B400AF164BDB68154A23F44F
:1010D4008053D360134B1B69124A23F4805313616A
:1010E400104B1B690F4A23F4005313610D4B40F25C
:1010F40083629A600B4BDB680A4A43F40053D36063
:10110400084BDB68074A43F00803D360054BDB68F0
:10111400044A43F00403D36000BFBD465DF8047B7A
:10112400704700BF0010014080B483B000AF034695
:10113400FB7100BF0D4B1B6803F08003002BF9D03B
:101144000A4AFB79536000BF084B1B6803F0400355
:10115400002BF9D0054B1B68044A23F040031360AD
:1011640000BF0C37BD465DF8047B7047001001409A
:1011740080B582B000AFFFF7A5FE00210120FFF784
:10118400D1FE01210120FFF7CDFE04210320FFF74A
:10119400C9FEFFF703FF00F053F8FFF793FFFFF7D3
:1011A40093FA0023BB71FFF713F8FFF7E5FB002167
:1011B4000120FFF791FB00211D48FFF7B3FBFFF768
:1011C40027F80346BB71FFF7D7FBBB79002B1AD175
:1011D40000211848FFF7A6FB00210220FFF77CFB43
:1011E40000211548FFF79EFB012206210020FFF78E
:1011F400DFFC40F6B830FFF7E1FE002206210020B4
:10120400FFF7D6FCD1E70023FB71FFF7B5FB002104
:101214000A48FFF787FB40F2DC50FFF7CFFE03E0FC
:10122400FFF7B6F80346FB71FB79002BF8D0BCE757
:101234004C1500085C1500086C1500087C150008A6
:1012440080B500AF002200210120FFF7A1FB00229E
:1012540001210120FFF79CFB002202210120FFF75E
:1012640097FB002203210120FFF792FB01220021BA
:101274000120FFF7F5FB012201210120FFF7F0FB1C
:10128400012202210120FFF7EBFB012203210120AF
:10129400FFF7E6FB01220C210120FFF779FB012275
:1012A4000D210120FFF774FB01220E210120FFF71D
:1012B4006FFB01220F210120FFF76AFB01220021AD
:1012C4000020FFF765FB012201210020FFF760FBEE
:1012D400012202210020FFF75BFB012208210020EC
:1012E400FFF756FB012204210020FFF751FB0122E6
:1012F40005210020FFF74CFB01220B210020FFF702
:1013040047FB01220C210020FFF742FB01220D21A3
:101314000020FFF73DFB01220E210020FFF738FBE0
:1013240001220F210020FFF733FB012206210020B8
:10133400FFF72EFB022209210020FFF729FB0222DE
:101344000A210020FFF724FB072209210020FFF7D0
:10135400F9FC07220A210020FFF7F4FC00BF80BD3E
:1013640080B400AFFEE780B400AFFEE780B400AF06
:10137400FEE780B400AFFEE780B400AFFEE780B4C0
:1013840000AF00BFBD465DF8047B704780B400AF7A
:1013940000BFBD465DF8047B704780B400AF00BF5A
:1013A400BD465DF8047B704780B400AF064BD3F8AC
:1013B4008830054A43F47003C2F8883000BFBD4644
:1013C4005DF8047B704700BF00ED00E0DFF834D027
:1013D4000D480E490E4A002302E0D458C450043389
:1013E400C4188C42F9D30B4A0B4C002301E0136060
:1013F4000432A242FBD3FFF7D7FF00F011F8FFF746
:10140400B7FE7047000001200000002024000020E7
:1014140090150008240000204C000020FEE7000086
:1014240070B50D4D0D4C641BA4100026A64209D1C5
:101434000B4D0C4C00F018F8641BA4100026A642B7
:1014440005D170BD55F8043B98470136EEE755F8D1
:10145400043B98470136F2E7881500088815000810
:10146400881500088C150008F8B500BFF8BC08BC46
:101474009E467047F8B500BFF8BC08BC9E4670474E
:1014840057656C636F6D6520746F0000536D6172F6
:101494007420486F6D65000057726F6E672C74720C
:1014A4007920616761696E005061737320697320EC
:1014B400636F72726563740077726F6E672C7472F7
:1014C4007920616761696E00312D4F4E204C45448F
:1014D40031000000322D4F4E204C454432000000B4
:1014E400302D4E5854000000332D4F4E204C4544AF
:1014F40033000000342D4F46464C45443100000073
:10150400352D4F46464C454432000000362D4F469B
:10151400464C454433000000372D4C49474854534A
:101524004F464600382D46414E000000392D4C4FA1
:1015340047204F5554000000302D46495253542043
:101544005041474500000000456E74657220796F74
:1015540075722070617373006E6F206D6F726520F9
:10156400747269616C73000077616974203320734D
:1015740065636F6E647300004C6F67676564206910
:041584006E000000F5
:04158800B90100089D
:04158C0095010008BD
:10159000313233340C0D0E0F010101010001020341
:1015A000010101013738392F3435362A3132332DD4
:0415B00043303D2B5C
:04000005080013D10B
:00000001FF
